:020000040100F9
:10000000FD62938202400100FD12E39E02FE374131
:10001000000213010100B701000293810100B7152E
:100020000001938505F537160001130606F8B7069B
:1000300000029386060039A083A2050023A0560083
:1000400091059106E3EAC5FEB7150001938505F811
:1000500037160001130606F8B70600029386062637
:1000600039A083A2050023A0560091059106E3EA7A
:10007000C5FEB70500029385050337060002130687
:10008000062621A023A005009105E3EDC5FEB700DB
:100090000001E780C00AB7000001E780C00AB7008E
:1000A0000001E780207B73005010F5BF82800000C4
:1000B0000000000000000000000000000000000040
:1000C0006F004000197106C20AC40EC612C816CAD3
:1000D0001ACC1ECE22D026D22AD42ED632D836DA48
:1000E0003ADC3EDEC2C0C6C2CAC4CEC6D2C8D6CA78
:1000F000DACCDECEE2D0E6D2EAD4EED6F2D8F6DA28
:10010000FADCFEDE970000009380E00482909240CB
:100110002241B2414242D2426243F24302549254DB
:100120002255B2554256D2566257F2570648964863
:100130002649B649464AD64A664BF64B065C965C5B
:10014000265DB65D465ED65E665FF65F096173004A
:10015000203001A03D432A876373C3029377F700E1
:10016000BDEFADE5937606FF3D8ABA960CC34CC34E
:100170000CC74CC74107E36BD7FE11E28280B30680
:10018000C3408A069702000096966780A600230760
:10019000B700A306B7002306B700A305B7002305E1
:1001A000B700A304B7002304B700A303B7002303D9
:1001B000B700A302B7002302B700A301B7002301D1
:1001C000B700A300B7002300B700828093F5F50FB6
:1001D00093968500D58D93960501D58D61B793963D
:1001E00027009702000096968682E78086FA96801E
:1001F000C1171D8F3E96E374C3F8A5B7B707050076
:100200000947D8CFB7170500938707C0984385667D
:1002100093860640558F98C398471367074098C741
:10022000B71708009387074023A0070023A2070001
:1002300023A407001307A008D8C77D57D8CF354798
:1002400098C3D84F935657018D8AE5DE8280B71741
:1002500008009387074023A0070023A2070023A4D8
:10026000070023A607007D57D8CF23A40702B7179E
:100270000500938707C09843F1769386F63F758F04
:1002800098C398471377F7BF98C7B7070500D84FAB
:1002900023AE07008280B71708009387074088D7EE
:1002A000D84F137707046DDF8280370700020323DE
:1002B000C703B706000237150800B7450F0023A093
:1002C000060481470146130505409385152403283C
:1002D000C501B308F30013780802630C080205C2D5
:1002E000232E170337470F0023A0F6041307072414
:1002F0006397E700B707000205472383E700B717B6
:10030000080093870740C853420541818280054613
:100310007DBF8507E39DB7FE7DD2B7470F0093876A
:10032000072423A0F604232E1703E9B7411106C6BC
:1003300022C426C2AA84EF003019E1689388086AB3
:1003400001488147014781460146B70520C72685F8
:1003500037949800EF00A07C130414687D1419E40E
:100360000D45B24022449244410182808545268554
:10037000EF00F01605897DF10145E5B7411122C472
:1003800037040002930704008C43B70700804AC07B
:10039000BE95B707000223AAB70206C626C29397E6
:1003A0004501130404003709000289E71305890099
:1003B000EF0010200C40B70400029386440413069B
:1003C000001013058900EF00F0191C4037070002E8
:1003D00083562703938707101CC013060010B687A7
:1003E00063F4C60093070010138444041305F4005B
:1003F000938707F01306100F814513040410231987
:10040000F702893BA285138544043D46EF00901E08
:1004100023200400232204002324040023160400C4
:1004200023070400B24022449244024941018280E1
:100430005D71130680028145280886C6213BBD47B1
:10044000230CF1008947230EF1003ED2E177938718
:1004500007082C080A85231AF1028523B64061613A
:1004600082805D71A2C4370400021305840086C631
:10047000A6C2092D13058400EF00207489451305D9
:100480008400EF00D0059377250085E3AA84854595
:1004900013058400EF00B00413E62400AA85137648
:1004A000F60F13058400EF00F006E1689388086AF0
:1004B00001488147014781460146B70520381305A9
:1004C0008400B12DE16838009388086A130800029F
:1004D000854681470146B70599EB1305840023043F
:1004E0000100352DB715000151469385C5F368000D
:1004F000EF005010930484009C406C0051463ED0A5
:1005000085473ED26810C1673ED4EF00B00EB706F3
:1005100007009C423707F1FF7D17F98F08109CC236
:100520006523B6402644964461618280411106C627
:10053000393B053FB707008073905730B700008004
:100540008290B240410182804111B707000222C46B
:100550001387070006C68346670005471384070014
:10056000639EE600B717080093870740D84F218B9A
:1005700009C7D84F13678700D8CF4D3F2303040026
:10058000B240224441018280411106C622C426C2E3
:100590004AC08347350005476383E70811472A842B
:1005A0006389E7008DCFB240224492440249410161
:1005B0008280B707000283D7270391C3C1338347E3
:1005C000440003475400E2074207BA973707000286
:1005D000232CF702370700022320F700E9B7370979
:1005E000000283542903034605009305450037059F
:1005F0000002130545042695EF00C07F83470400E1
:10060000BE94C204C180231999029307F00FE3FC42
:1006100097F82244B24092440249410185B33D45D6
:100620009D39B707000283D7270391C3813B22443A
:10063000B240924402494101D5BD370700029307F9
:100640000700B705000203DE470083A7050437163D
:10065000080037450F0037480F00B7080002014374
:1006600081461307070013060640130515241308D7
:1006700008249388481563EEC6016304030023A091
:10068000F50483476700A9E7370500021305451500
:10069000E5BD81470323C60113730302631F0300F3
:1006A0008507E399A7FEB7470F009387072423A088
:1006B000F50485472303F7008280E38607FF832E36
:1006C00046023383D80085062300D301054365B76E
:1006D0008280011122CC4EC652C437040002B749B1
:1006E0000F00371ADCBA26CA4AC856C25AC006CE0C
:1006F00013040400370900029389F923930A0003C5
:10070000B7040002391A370B000245368327C903A4
:10071000A303A40063F3F900113D8347640099C368
:100720002535E5B7834674006388560593070006B0
:100730006381F60603C704038D47998F8E07B3576D
:10074000FA0093F7F70F6393F6069307170093F7F2
:10075000F70F2388F4021147639DE7003D45253ECE
:1007600013058B00E13629C11305000F2D362388B0
:100770000402232E090251BF3D45232E090223887E
:100780000402113E1D3605052312A4003D45213605
:10079000ADBF3D45232E090223880402ED3C713D87
:1007A00083476400B5FFDDB73D45C9B72388040220
:1007B000A9BF011106CE22CCA539370400021305CA
:1007C0008400C92413058400CD2EE1689388086A4B
:1007D00001488147780085460146B705D9EB1305E6
:1007E000840023060100252EE1689388086A0148E9
:1007F0008147014781460146B70538FF130584004C
:10080000392EED3AF9350547AA876305E502094710
:100810006300E506054591EBB7060600DC4A7D77E7
:100820001307F73FF98FDCCA014582807D1719EB6A
:100830000D4582809306004037A707001307071273
:10084000B7050500905D7D8E75D2370606005C4ABF
:100850007D771307F73FF98FD58F41115CCA02C628
:1008600013073006B2476359F70001454101828002
:10087000856693860680C9B7B24785073EC6DDB751
:1008800091476307F50263EAA7008547630AF50409
:1008900089476309F50405458280A147E31DF5FEFC
:1008A0000947094501A8FD1781EFC8D20D4582808F
:1008B00005470D45B7A7070093870712B706050040
:1008C000905E798E6DD28A05C98D4111CCD202C657
:1008D00013073006B247635AF70001454101828091
:1008E0001147C9BF21470145F1B7B24785073EC649
:1008F000D5B70547AA876305E50209476302E50600
:10090000054591EBB70606009C4A7D771307F73F34
:10091000F98F9CCA014582807D1719EB0D458280B5
:100920009306004037A7070013070712B705050015
:10093000905D7D8E75D2370706001C4B7D761306C1
:10094000F63FF18FD58F1CCB85471CCF411102C6D6
:1009500013073006B2476359F70001454101828011
:100960008566938606807DBFB24785073EC6DDB7A4
:1009700011C98547630DF50205458280FD1791EB8E
:100980000D4582800946B7A7070093870712B7066F
:100990000500985E718F7DD34111C8D602C613073A
:1009A0003006B2476357F700014541018280054692
:1009B000D9BFB24785073EC6EDB7011126CAB704B5
:1009C0000600DC4806CE22CC4AC84EC652C456C2E7
:1009D000F19BDCC89C482A89C845F19B9CC883C709
:1009E000C5012E848A07DCC883C7D5018A079CC845
:1009F000193D0C44AA8A0345440059351848B707E5
:100A000005002A8A98C358480850D8C3184C98C77C
:100A1000CD35AA894850A93F834704002A8793F619
:100A2000170089E6D44893E62600D4C893F6270039
:100A300099E637060600544A93E6160054CA93F620
:100A4000470099E637060600144A93E6260014CAC2
:100A5000A18B99E7B70606009C4A93E717009CCA4A
:100A6000F240624423205901232249012324390101
:100A70002326E900D244B249224A924A4A85424991
:100A800005618280011106CE22CC02C402C6214734
:100A9000B707050037550800D8C705448D478A8534
:100AA000130505803EC022C2292A37550800930746
:100AB000C0038A851305058022C222C43EC01122CC
:100AC000F240624405618280411122C406C62A8434
:100AD000553F18405C4F93E707015CCF1C441CCB8B
:100AE0005C4085CB1C43B7061000D58F1CC3144C4B
:100AF0005C48B240D606CE07D58F83460401C206B5
:100B0000D58F8346C4012244E206D58F1CCF410114
:100B100082801C43B706F0FFFD16F58FC1BF03238B
:100B200005002A8E0325C30113650502232EA300A9
:100B30002324C3001396260149824D8E23260301E8
:100B40002322C300139605016354060299C205458A
:100B5000B1CB01476346D700639C08020D458280F4
:100B60003386E700034606000507230AC300DDB706
:100B700099C2054505CB8147E3D0D7FE03260E0079
:100B8000034546013306F70085072300A600EDB7AD
:100B900083270E00FD18DC4F93F70702D5DF1165A0
:100BA0006D8D11E18280B707070083C7470113F5F8
:100BB00085001D8D3335A00082801C414147D8CF70
:100BC0008280B7470800938707402A886304F508A6
:100BD000B7570800938707806304F50A3747080072
:100BE000630DE50A05458280331E1F013376DE0161
:100BF00029C683A3450088431393180033966F00DA
:100C00001346F6FF13F43300718D33146400418DE5
:100C100088C3638B5302638C0302084303AEC50091
:100C2000718D331E6E003365C50108C38842698E1D
:100C3000884533156500498E90C2850833D51E015D
:100C400045F53244410182802326C801F9B72324A7
:100C5000C801E1B7B716050037170500B71705003B
:100C6000938646C1130707C19387C7C083AE0500AB
:100C70008148054F8D4F914233D51E0105ED82808D
:100C8000B716050037170500B7170500938606C28B
:100C90001307C7C1938787C1D1BFB71605003717A0
:100CA0000500B7170500938686C0130747C09387D2
:100CB00007C06DBF331E1F013376DE0119E28508C0
:100CC00065BF411122C635B7E1689388086A0148BB
:100CD0008147014781460146B705200689B50111C4
:100CE00006CEA307010089476393F502B7052035B7
:100CF000E1681307F1009388086A01488147854637
:100D00000146313DF2400345F10005618280B7059F
:100D10002005F9BF011106CE22CC26CA2306B10058
:100D2000AA84A306C1004D37E1689388086A014888
:100D30007C00014789460146B78520012685096464
:100D4000F93B130414717D1419E40D45F24062441B
:100D5000D24405618280854526855137058965F530
:100D60000145EDB7011106CE22CC26CA2E844AC811
:100D7000AA84328936C6893FB247E16822869388C1
:100D8000086A01480147CA86B785800226856164E2
:100D900079331304146A7D1411C48545268581377F
:100DA000058975F9F2406244D24442490561828066
:100DB000011106CE22CC26CA2EC6AA84313732466D
:100DC000E1689388086A0148814701478146B70571
:100DD000802026856164A1331304146A7D1411C434
:100DE00085452685ED3D058975F9F2406244D2447A
:100DF00005618280B3C7A5008D8BB308C500B1E73C
:100E00008D4763F4C704937735002A87B9EB13F64F
:100E1000C8FFB306E6409307000263C8D706AE8654
:100E2000BA876371C70203A806009107910623AE33
:100E300007FFE3EAC7FE9307F6FF998FF19B91073F
:100E40003E97BE956366170182802A87637E1503ED
:100E500083C7050005078505A30FF7FEE39AE8FEA3
:100E6000828083C60500050793773700A30FD7FE5E
:100E70008505D1DF83C60500050793773700A30FEB
:100E8000D7FE8505F9FF61B78280411122C61304A0
:100E9000000283A3050083A2450083AF850003AF52
:100EA000C50083AE050103AE450103A3850103A878
:100EB000C501945113074702B307E640232E77FC80
:100EC000232057FE2322F7FF2324E7FF2326D7FF03
:100ED0002328C7FF232A67FE232C07FF232ED7FED4
:100EE00093854502E347F4FAAE86BA876371C70279
:100EF00003A806009107910623AE07FFE3EAC7FEA9
:100F00009307F6FF998FF19B91073E97BE95636516
:100F1000170132444101828083C70500050785051A
:100F2000A30FF7FEE387E8FE83C7050005078505E5
:100F3000A30FF7FEE392E8FEE9BF000020000000E7
:100F4000010000000300000006000000EB000000AC
:100F5000000000800000000000000700000000000A
:100F60000000000000000000000000000000000081
:100F70000000000000000000000000000000000071
:0400000501000000F6
:00000001FF
